:100000000C943E000C9450000C9450000C94500042
:100010000C9450000C9450000C9450000C94500020
:100020000C9450000C9450000C9450000C94500010
:100030000C9450000C9450000C9450000C94500000
:100040000C9450000C9450000C9450000C945000F0
:100050000C9450000C9450000C9450000C945000E0
:100060000C9450000C9450000C9450000C945000D0
:100070000C9450000C9450000C94500011241FBE9E
:10008000CFEFCDBFDFE3DEBF28E3A0E0B8E301C0E0
:100090001D92A030B207E1F70E9452000C9491002B
:1000A0000C940000CF93DF93CDB7DEB7C054D109D5
:1000B000CDBFDEBFE0E0F4E08FEB80838FEF809375
:1000C000200480E4828388E0868B80E4E6E2F1E825
:1000D000DE01119601900D928A95E1F79E012F5B4A
:1000E0003F4F00E014E040E254E0FE013196D801B9
:1000F00018968C91189786FF07C0808114968C9370
:100100008281DA0114968C93BAE06BE882E0B150F8
:1001100060408040E1F700C03496E217F30739F7FA
:06012000E4CFF894FFCFCC
:10012600FD000400FB000400EE000400DE000400F5
:10013600DE000800EE000800FB000800FD000800D5
:10014600FD000100FB000100EE000100DE000100E1
:10015600DE000200EE000200FB000200FD000200CD
:00000001FF
