S01200004D792050726F6A6563742E7372656355
S11300000C943E000C9450000C9450000C9450003E
S11300100C9450000C9450000C9450000C9450001C
S11300200C9450000C9450000C9450000C9450000C
S11300300C9450000C9450000C9450000C945000FC
S11300400C9450000C9450000C9450000C945000EC
S11300500C9450000C9450000C9450000C945000DC
S11300600C9450000C9450000C9450000C945000CC
S11300700C9450000C9450000C94500011241FBE9A
S1130080CFEFCDBFDFE3DEBF28E3A0E0B8E301C0DC
S11300901D92A030B207E1F70E9452000C94700048
S11300A00C9400008FE780932004E0E0F4E0808368
S11300B0848380E4828388E0868BA0E0B4E0E0E27D
S11300C0F4E092E018968C91189786FD02C096830E
S11300D001C09583C1E4D3E02197F1F70000F2CF8A
S10700E0F894FFCFBE
S9030000FC
