:100000000C943E000C9450000C9450000C94500042
:100010000C9450000C9450000C9450000C94500020
:100020000C9450000C9450000C9450000C94500010
:100030000C9450000C9450000C9450000C94500000
:100040000C9450000C9450000C9450000C945000F0
:100050000C9450000C9450000C9450000C945000E0
:100060000C9450000C9450000C9450000C945000D0
:100070000C9450000C9450000C94500011241FBE9E
:10008000CFEFCDBFDFE3DEBF28E3A0E0B8E301C0E0
:100090001D92A030B207E1F70E9452000C94890033
:1000A0000C940000CF93DF93CDB7DEB7C054D109D5
:1000B000CDBFDEBF8FE780932004E0E0F4E08083D3
:1000C000848380E4828388E0868B80E4E6E1F1E843
:1000D000DE01119601900D928A95E1F7AE014F5B1A
:1000E0005F4F20E034E060E274E0FE0131968081F1
:1000F000D90114968C938281DB0114968C9382EC47
:1001000092EA0197F1F700C03496E417F50779F702
:06011000ECCFF894FFCFD4
:10011600FD000400FB000400EE000400DE00040005
:10012600DE000800EE000800FB000800FD000800E5
:10013600FD000100FB000100EE000100DE000100F1
:10014600DE000200EE000200FB000200FD000200DD
:00000001FF
