S01200004D792050726F6A6563742E7372656355
S11300000C943E000C9450000C9450000C9450003E
S11300100C9450000C9450000C9450000C9450001C
S11300200C9450000C9450000C9450000C9450000C
S11300300C9450000C9450000C9450000C945000FC
S11300400C9450000C9450000C9450000C945000EC
S11300500C9450000C9450000C9450000C945000DC
S11300600C9450000C9450000C9450000C945000CC
S11300700C9450000C9450000C94500011241FBE9A
S1130080CFEFCDBFDFE3DEBF28E3A0E0B8E301C0DC
S11300901D92A030B207E1F70E9452000C948D002B
S11300A00C940000CF93DF93CDB7DEB7C054D109D1
S11300B0CDBFDEBF8FE780932004E0E0F4E08083CF
S11300C080E4828388E0868B80E4EEE1F1E8DE015F
S11300D0119601900D928A95E1F79E012F5B3F4F97
S11300E060E074E040E254E0FE013196DB011896D2
S11300F08C91189786FF07C0808114968C93828117
S1130100DA0114968C9382EC92EA0197F1F700C01D
S11101103496E217F30751F7E7CFF894FFCFC8
S113011EFD000400FB000400EE000400DE000400F9
S113012EDE000800EE000800FB000800FD000800D9
S113013EFD000100FB000100EE000100DE000100E5
S113014EDE000200EE000200FB000200FD000200D1
S9030000FC
