S01200004D792050726F6A6563742E7372656355
S11300000C943E000C945B000C945B000C94700008
S11300100C945B000C945B000C945B000C945B00F0
S11300200C945B000C945B000C945B000C945B00E0
S11300300C945B000C945B000C945B000C945B00D0
S11300400C945B000C945B000C945B000C945B00C0
S11300500C945B000C945B000C945B000C945B00B0
S11300600C945B000C945B000C945B000C945B00A0
S11300700C945B000C945B000C945B0011241FBE79
S1130080CFEFCDBFDFE3DEBF18E3A0E0B8E3E6E3E4
S1130090F1E002C005900D92A030B107D9F728E332
S11300A0A0E0B8E301C01D92A030B207E1F70E94BE
S11300B05D000C9499000C940000E0E0F4E084E00E
S11300C08183A0E2B4E081E011968C93119790E4CF
S11300D092839BE0968B7894148214968C93FFCF32
S11300E01F920F920FB60F9211242F938F939F9309
S11300F0EF93FF9384E0809307042AE684E091E081
S1130100215080409040E1F700C0E0E0F4E08085B9
S113011086FFFDCFE0E0F4E0818580648187FF9174
S1130120EF919F918F912F910F900FBE0F901F9081
S10901301895F894FFCFBE
S9030000FC
