S01200004D792050726F6A6563742E7372656355
S11300000C943E000C9450000C9450000C9450003E
S11300100C9450000C9450000C9450000C9450001C
S11300200C9450000C9450000C9450000C9450000C
S11300300C9450000C9450000C9450000C945000FC
S11300400C9450000C9450000C9450000C945000EC
S11300500C9450000C9450000C9450000C945000DC
S11300600C9450000C9450000C9450000C945000CC
S11300700C9450000C9450000C94500011241FBE9A
S1130080CFEFCDBFDFE3DEBF28E3A0E0B8E301C0DC
S11300901D92A030B207E1F70E9452000C94A10017
S11300A00C940000CF93DF93CDB7DEB76097CDBF3C
S11300B0DEBF8FE780932004E0E0F4E08083848354
S11300C080E4828388E0868BE6E4F1E8DE01119621
S11300D001900D928A95E1F788E0EEE4F1E8DE0103
S11300E0199601900D928A95E1F78E010F5E1F4FCC
S11300F060E274E0AE01475F5F4F20E034E07E01D0
S113010089E0E80EF11CD7018C91B2E0EB0EF11CF2
S1130110FB018483FE01319680813296D9011496C5
S11301208C93BFE986E891E0B15080409040E1F7BC
S113013000C00000E417F50779F7E016F10619F797
S1090140DECFF894FFCFAE
S1130146FD00FB00EE00DE000100020004000800D2
S9030000FC
