S01700004763634170706C69636174696F6E332E7372656359
S113000019C033C032C088C030C02FC02EC02DC02C
S11300102CC02BC02AC029C028C027C026C025C098
S113002024C023C022C021C020C01FC01EC01DC0C8
S11300301CC01BC011241FBECFEFCDBFDFE3DEBF4A
S11300401FE3A0E0BFE3EEE9F1E002C005900D92EA
S1130050A032B107D9F72FE3A0E2BFE301C01D929C
S1130060A432B207E1F702D098C0CACFE0E0F4E0CE
S11300708FEB81838FEF809321048BE0868B8091BB
S1130080223F9091233F1092203F1092213F789479
S1130090C0E0D4E0A0E2B4E01092223F1092233FEB
S11300A08091223F9091233F4097B4F72091223FC3
S11300B03091233F8091203F9091213F82179307F5
S11300C0DCF0E091223FF091233FEE0FFF1FE05060
S11300D0F14C80818C83E091223FF091233FEE0F1D
S11300E0FF1FE050F14C818114968C93149781E4A6
S11300F093E00197F1F700008091223F9091233F14
S113010001968093223F9093233F8091223F9091C8
S1130110233F40975CF2C0CF1F920F920FB60F920D
S113012011242F938F939F93EF93FF93E0E0FFE3CA
S113013080A18093040481A180932404E0E0F4E08E
S1130140808586FFFDCF8091203F9091213F0196CD
S11301508093203F9093213F8091203F9091213FB5
S1130160409724F01092203F1092213F2AE684E029
S113017091E0215080409040E1F700C0E0E0F4E0DD
S1130180818580648187FF91EF919F918F912F9159
S11101900F900FBE0F901F901895F894FFCF9C
S113019EFD04FB04EF04DF04DF08EF08FB08FD0891
S11301AEFD01FB01EF01DF01DF02EF02FB02FD02A5
S9030000FC
