:1000000019C028C027C09EC025C024C0D9C022C0A6
:1000100021C020C01FC01EC01DC01CC01BC01AC0F4
:1000200019C018C017C016C015C014C013C012C024
:1000300011C010C011241FBECFEFCDBFDFE3DEBF64
:100040002FE3A0E0BFE301C01D92A630B207E1F7A5
:1000500026D0C5C0D5CF9C0110924701E0E4F1E065
:1000600091819111FDCFE0E4F1E022873387828115
:100070008160828389EF80830895880F991FFC0136
:10008000EE51FE4780818093040481818093240493
:1000900008958FEF809304041092240408958AE059
:1000A00090E0D9DFE0E0F4E08FEB81838FEF809385
:1000B00021048BE0868B88E090E08093023F909350
:1000C000033F7894EE24E394F12C00E510E00F2E2A
:1000D000F9E0CF2EF4E0DF2EF02DC9E3D1E0E0927D
:1000E000043FF092053F8E2D9F2D2091023F3091CD
:1000F000033F2817390714F0C0DF01C0CADF81E4CD
:1001000093E00197F1F700008091043F9091053F43
:1001100001968093043F9093053F813191052CF324
:100120002197E9F6B6DFF8018081897F8083F89412
:10013000808181608083F6018081806880837894EB
:100140008895CBCF1F920F920FB60F9211242F9349
:100150008F939F93EF93FF9325ED88E092E02150DA
:1001600080409040E1F78091080486FD15C08091A1
:10017000023F9091033F01968093023F9093033F8B
:100180008091023F9091033F429734F080E190E0EC
:100190008093023F9093033FE0E0F4E0808586FF88
:1001A000FDCFE0E0F4E0818580648187FF91EF91ED
:1001B0009F918F912F910F900FBE0F901F901895C8
:1001C0001F920F920FB60F9211248F9381E08093AC
:1001D00043018F910F900FBE0F901F901895F894C8
:0201E000FFCF4F
:1001E200FF00FD04FB04EF04DF04DF08EF08FB0857
:1001F200FD08FD01FB01EF01DF01DF02EF02FB025F
:02020200FD02FB
:00000001FF
