S01700004763634170706C69636174696F6E332E7372656359
S113000019C028C027C091C025C024C023C0A2C0E5
S1130010B0C020C01FC01EC01DC0EDC01BC01AC090
S113002019C018C017C016C015C014C013C012C020
S113003011C010C011241FBECFEFCDBFDFE3DEBF60
S11300402FE3A0E0BFE301C01D92A830B207E1F79F
S11300502CD0F3C0D5CF9C01E0E0FAE081E08287A8
S1130060118291859E7F918726A337A38FE0808399
S11300700895E0E4FAE08FEF9FEF8487958781E0AD
S1130080808385830895880F991FFC01E25CFD47F6
S113009080818093040481818093240408958FEFE8
S11300A08093040410922404089581E090E0D3DF47
S11300B0E0DFE0E0F4E08FEB81838FEF80932104B5
S11300C08BE0868B87E090E08093023F9093033F20
S11300D01092053F1092063F1092073F1092043F82
S11300E078948091043F8A30E0F3E0E5F0E0808189
S11300F0826080838081816080838091073F833325
S113010068F08091023F9091033F01968093023FF3
S11301109093033F8091043F8A30E0F38091043F41
S1130120853658F3BCDF8895E8CF1F920F920FB63F
S11301300F9211248F93EF93FF93E0E0F4E0818515
S113014080648187FF91EF918F910F900FBE0F9084
S11301501F9018951F920F920FB60F9211248F9330
S113016081E0809353018F910F900FBE0F901F90E9
S113017018951F920F920FB60F9211242F933F934D
S11301804F935F936F937F938F939F93AF93BF939B
S1130190EF93FF938091053F9091063F01968093E2
S11301A0053F9093063F2091023F3091033F28176B
S11301B0390714F068DF01C072DF8091053F909128
S11301C0063F419724F01092053F1092063F81E0CC
S11301D080930B0AFF91EF91BF91AF919F918F9103
S11301E07F916F915F914F913F912F910F900FBE2F
S11301F00F901F9018951F920F920FB60F92112413
S11302008F938091080486FD08C08091073F8F5F1B
S11302108093073F1092043F07C01092073F8091DC
S1130220043F8F5F8093043F81E08093460A8F915F
S11102300F900FBE0F901F901895F894FFCFFB
S113023EFF00FD04FB04EF04DF04DF08EF08FB08F6
S113024EFD08FD01FB01EF01DF01DF02EF02FB02FE
S105025EFD029B
S9030000FC
