:1000000019C028C027C089C025C024C023C09AC0F9
:10001000A8C020C01FC01EC01DC01CC01BC01AC06D
:1000200019C018C017C016C015C014C013C012C024
:1000300011C010C011241FBECFEFCDBFDFE3DEBF64
:100040002FE3A0E0BFE301C01D92A630B207E1F7A5
:1000500031D0C9C0D5CF81E080934701E0E4F1E021
:1000600081898111FDCFE0E4F1E081E0828B81E4C0
:10007000808B08959C01E0E0FAE081E082871182A4
:1000800091859E7F918726A337A38FE08083089573
:10009000880F991FFC01E651FE478081809304047C
:1000A00081818093240408958FEF8093040410923B
:1000B0002404089581E090E0DDDFCDDFE0E0F4E0AE
:1000C0008FEB81838FEF809321048BE0868B88E018
:1000D00090E08093023F9093033F1092043F109270
:1000E000053F7894C0E5D0E009E014E02AE28CE214
:1000F0009AE0215080409040E1F70000D5DF8881F0
:1001000084608883888181608883F894F801808185
:100110008068808378948895E9CF1F920F920FB6FC
:100120000F9211248F93EF93FF93E0E0F4E0818529
:1001300080648187FF91EF918F910F900FBE0F9098
:100140001F9018951F920F920FB60F9211248F9344
:1001500081E0809353018F910F900FBE0F901F90FD
:1001600018951F920F920FB60F9211242F933F9361
:100170004F935F936F937F938F939F93AF93BF93AF
:10018000EF93FF938091043F9091053F01968093F8
:10019000043F9093053F2091023F3091033F821727
:1001A000930714F475DF01C07FDF8091043F9091C5
:1001B000053F419724F01092043F1092053F81E0E3
:1001C00080930B0AFF91EF91BF91AF919F918F9117
:1001D0007F916F915F914F913F912F910F900FBE43
:0A01E0000F901F901895F894FFCFC0
:1001EA00FF00FD04FB04EF04DF04DF08EF08FB084F
:1001FA00FD08FD01FB01EF01DF01DF02EF02FB0257
:02020A00FD02F3
:00000001FF
