S01700004763634170706C69636174696F6E332E7372656359
S113000019C033C032C05FC130C02FC02EC070C110
S11300107EC12BC02AC029C028C0BBC126C025C0B0
S113002024C023C022C021C020C01FC01EC01DC0C8
S11300301CC01BC011241FBECFEFCDBFDFE3DEBF4A
S11300401FE3A0E0BFE3E7E3FAE002C005900D92EE
S1130050A030B107D9F72FE3A0E0BFE301C01D92A0
S1130060A031B207E1F72DD08AC4CACF9C01E0E0E9
S1130070FAE081E08287118291859E7F918726A391
S113008037A38FE080830895E0E4FAE08FEF9FEFD9
S11300908487958783E0808381E085830895880F32
S11300A0991FFC01EB5EF5478081809304048181F4
S11300B08093240408958FEF809304041092240401
S11300C0089581E090E0D2DFDFDFE0E0F4E08FEB41
S11300D081838FEF809321048BE0868B1092083FFD
S11300E01092093F1092043F1092053F87E090E080
S11300F08093023F9093033F1092063F1092073F74
S11301007894E0E5F0E08081826080838081816082
S113011080838091043F9091053F0697E8F4C2E8FC
S1130120D9E82091043F3091053F8091083F909198
S1130130093F3F932F939F938F93DF93CF9359D18D
S11301408091043F9091053F0F900F900F900F9076
S11301500F900F90069728F38AED99E89F938F9359
S113016048D10F900F900F2EF3EEEF2EF9E8FF2EEB
S1130170F02DC2E8D9E80AED19E80F2EF6EFAF2EFC
S1130180F9E8BF2EF02D0F2EF8E08F2EFAE89F2EFF
S1130190F02D0F2EF0E5CF2ED12CF02D8091083FBD
S11301A09091093F0B9708F444C08091023F9091CD
S11301B0033F01968093023F9093033F8091023F57
S11301C09091033F9F938F93FF92EF9212D11092DD
S11301D0083F1092093F1092043F1092053F80910E
S11301E0043F9091053F0F900F900F900F9006974A
S11301F0D8F42091043F3091053F8091083F9091BD
S1130200093F3F932F939F938F93DF93CF93F1D025
S11302108091043F9091053F0F900F900F900F90A5
S11302200F900F90069728F31F930F93E2D00F902F
S11302300F908091043F9091053F893C910508F40B
S1130240ADCFBF92AF92D5D088959F928F92D1D0E7
S11302501092083F1092093F1092043F1092053FFC
S11302607894F601808184608083808181608083BA
S11302708091043F9091053F0F900F900F900F9045
S11302800697D8F42091043F3091053F8091083FB0
S11302909091093F3F932F939F938F93DF93CF9335
S11302A0A8D08091043F9091053F0F900F900F903C
S11302B00F900F900F90069728F31F930F9399D0E8
S11302C00F900F906BCF1F920F920FB60F921124C5
S11302D08F93EF93FF93E0E0F4E08185806481875E
S11302E0FF91EF918F910F900FBE0F901F90189573
S11302F01F920F920FB60F9211248F9381E0809377
S113030053018F910F900FBE0F901F9018951F925D
S11303100F920FB60F9211242F933F934F935F9335
S11303206F937F938F939F93AF93BF93EF93FF93B9
S11303308091063F9091073F01968093063F9093EA
S1130340073F2091023F3091033F2817390714F0EB
S1130350A6DE01C0B0DE8091063F9091073F419731
S113036024F01092063F1092073F81E080930B0A1D
S1130370FF91EF91BF91AF919F918F917F916F9179
S11303805F914F913F912F910F900FBE0F901F904F
S113039018951F920F920FB60F9211248F939F936B
S11303A08091080486FD0EC08091083F9091093F1A
S11303B001968093083F9093093F1092043F109256
S11303C0053F0DC01092083F1092093F8091043FF1
S11303D09091053F01968093043F9093053F81E0FF
S11303E08093460A9F918F910F900FBE0F901F909C
S11303F01895A0E0B0E0EEEFF1E0A0C2AE014B5FD3
S11304005F4FFA0161917191AF0180910C3F90911E
S11304100D3F02D0E2E0ABC2ABE0B0E0E1E1F2E0DC
S11304207DC26C017B018A01FC01168217828381E3
S113043081FFBFC1CE0101963C01F6019381F70112
S113044093FD859193FF81917F01882309F4ADC1C8
S1130450853239F493FD859193FF81917F01853233
S113046021F4B60190E0C0D1E8CF912C212C312C9D
S1130470FFE1F315D8F08B3279F038F4803279F05B
S11304808332A1F4232D20611DC08D3261F08033AD
S113049069F4232D216016C0832D8260382EE32D4C
S11304A0E4603E2E2AC0F32DF8601DC037FC2DC039
S11304B020ED280F2A3040F08E32B9F436FC75C195
S11304C0232D2064322E19C036FE06C08AE0989E81
S11304D0200D1124922E11C0EAE02E9E200D11242D
S11304E0222EF32DF0623F2E08C08C3621F4832D8A
S11304F08068382E02C0883641F4F70193FD859157
S113050093FF81917F018111B3CF982F9F7D9554E3
S1130510933028F40C5F1F4F9FE399830DC08336FB
S113052031F0833771F0833509F055C020C0F801EC
S1130530808189830E5F1F4F88248394912C5301FB
S113054012C02801F2E04F0E511CF801A080B180C6
S113055036FE03C0692D70E002C06FEF7FEFC50166
S113056038D14C018201F32DFF773F2E15C02801AD
S113057022E0420E511CF801A080B18036FE03C077
S1130580692D70E002C06FEF7FEFC50117D14C01F8
S1130590F32DF0683F2E820133FC19C0822D90E0C8
S11305A088169906A0F4B60180E290E01DD12A9441
S11305B0F5CFF50137FC859137FE81915F01B601D6
S11305C090E012D121102A9421E0821A910881141A
S11305D0910479F7E1C0843611F0893639F5F801D0
S11305E037FE07C060817181828193810C5F1F4F48
S11305F008C060817181072E000C880B990B0E5F77
S11306001F4FF32DFF763F2E97FF09C090958095DD
S1130610709561957F4F8F4F9F4FF0683F2E2AE072
S113062030E0A3011DD1882E861844C0853731F4EB
S1130630232D2F7EB22E2AE030E025C0932D997F02
S1130640B92E8F36C1F018F4883579F0AEC08037F2
S113065019F0883721F0A9C0E92FE061BE2EB4FE5D
S11306600DC0FB2DF460BF2E09C034FE0AC0292F33
S11306702660B22E06C028E030E005C020E130E05C
S113068002C020E132E0F801B7FE07C06081718149
S1130690828193810C5F1F4F06C06081718180E06D
S11306A090E00E5F1F4FA301DBD0882E8618FB2D30
S11306B0FF773F2E36FE0DC0232D2E7FA22E8914E8
S11306C058F434FE0BC032FC09C0832D8E7EA82E54
S11306D005C0B82CA32C03C0B82C01C0B92CA4FEAF
S11306E00FC0FE01E80DF11D8081803321F49A2DA5
S11306F0997EA92E09C0A2FE06C0B394B39404C087
S11307008A2D867809F0B394A3FC10C0A0FE06C01D
S1130710B21480F4280C922C9B180DC0B21458F417
S1130720B60180E290E060D0B394F8CFB21418F42C
S11307302B1802C0982C212CA4FE0FC0B60180E314
S113074090E052D0A2FE16C0A1FC03C088E790E05E
S113075002C088E590E0B6010CC08A2D867851F07D
S1130760A1FE02C08BE201C080E2A7FC8DE2B601CB
S113077090E03AD0891430F4B60180E390E034D0AC
S11307809A94F8CF8A94F301E80DF11D8081B601A3
S113079090E02AD08110F6CF222009F44ECEB60183
S11307A080E290E021D02A94F7CFF60186819781E8
S11307B002C08FEF9FEF2B96E2E1C9C0FC010590C8
S11307C0615070400110D8F7809590958E0F9F1F4F
S11307D00895FC016150704001900110D8F7809594
S11307E090958E0F9F1F08950F931F93CF93DF93C0
S11307F0FB01238121FD03C08FEF9FEF2CC022FF5B
S113080016C046815781248135814217530744F429
S1130810A081B1819D012F5F3F4F208331838C9351
S1130820268137812F5F3F4F2683378314C08B0186
S1130830EC01FB010084F185E02D0995892BE1F69B
S1130840D80116968D919C911797019616968D93C3
S11308509C931797CE01DF91CF911F910F9108952B
S1130860FA01AA27283051F1203181F1E8946F93DD
S11308706E7F6E5F7F4F8F4F9F4FAF4FB1E03ED083
S1130880B4E03CD0670F781F891F9A1FA11D680F21
S1130890791F8A1F911DA11D6A0F711D811D911D54
S11308A0A11D20D009F468943F912AE0269F1124C9
S11308B03019305D3193DEF6CF010895462F47702D
S11308C0405D4193B3E00FD0C9F7F6CF462F4F7088
S11308D0405D4A3318F0495D31FD4052419302D0E6
S11308E0A9F7EACFB4E0A69597958795779567958C
S11308F0BA95C9F700976105710508959B01AC018C
S11309000A2E06945795479537952795BA95C9F7B2
S1130910620F731F841F951FA01D08952F923F928D
S11309204F925F926F927F928F929F92AF92BF92FB
S1130930CF92DF92EF92FF920F931F93CF93DF93A7
S1130940CDB7DEB7CA1BDB0BCDBFDEBF09942A8847
S1130950398848885F846E847D848C849B84AA84CF
S1130960B984C884DF80EE80FD800C811B81AA815C
S1130970B981CE0FD11DCDBFDEBFED010895F8942E
S1050980FFCFA3
S113098257616974696E6720666F722072656C655F
S1130992617365207769746820636F6E736563752C
S11309A2746976655F636F756E74735F7072657375
S11309B27365643A25642C20636F6E736563757482
S11309C26976655F636F756E74735F72656C65617A
S11309D27365643A25640A0052656C6561736564E3
S11309E200496E6372656173696E67207820746F63
S11309F220256400676F696E6720746F20736C65CD
S1130A0265702E2E2E0077616B696E672075702ECD
S1130A122E2E00FF00FD04FB04EF04DF04DF08EFC9
S1130A2208FB08FD08FD01FB01EF01DF01DF02EF16
S1080A3202FB02FD02BD
S9030000FC
