:1000000019C028C027C0A8C025C024C023C0BCC0B8
:10001000CAC020C01FC01EC01DC01CC01BC01AC04B
:1000200019C018C017C016C015C014C013C012C024
:1000300011C010C011241FBECFEFCDBFDFE3DEBF64
:100040002FE3A0E0BFE301C01D92A730B207E1F7A4
:1000500031D0EBC0D5CF81E080934701E0E4F1E0FF
:1000600081898111FDCFE0E4F1E081E0828B81E6BE
:10007000808B08959C01E0E0FAE081E082871182A4
:1000800091859E7F918726A337A38FE08083089573
:10009000880F991FFC01E25DFD4780818093040475
:1000A00081818093240408958FEF8093040410923B
:1000B0002404089581E090E0DDDFCDDFE0E0F4E0AE
:1000C0008FEB81838FEF809321048BE0868B81E01F
:1000D00090E08093033F9093043F1092053F10926D
:1000E000063F7894E12C6894FF24F2F8C0E5D0E054
:1000F00009E014E08091003F8111ADDF2AE28CE23B
:100100009AE0215080409040E1F70000F70180859F
:1001100086FD09C08091033F9091043F0196809332
:10012000033F9093043FFAE22CE28AE0F150204032
:100130008040E1F70000B8DF88818460888388818F
:1001400081608883F8941092003FF8018081806874
:10015000808378948895CECF1F920F920FB60F921E
:1001600011248F93EF93FF9381E08093003FE0E0B1
:10017000F4E0818580648187FF91EF918F910F90EA
:100180000FBE0F901F9018951F920F920FB60F92EF
:1001900011248F9381E0809353018F910F900FBEB4
:1001A0000F901F9018951F920F920FB60F92112467
:1001B0002F933F934F935F936F937F938F939F936F
:1001C000AF93BF93EF93FF938091053F9091063FCC
:1001D00001968093053F9093063F2091033F309115
:1001E000043F2817390714F053DF01C05DDF809109
:1001F000053F9091063F419724F01092053F1092E1
:10020000063F81E080930B0AFF91EF91BF91AF9180
:100210009F918F917F916F915F914F913F912F911E
:0E0220000F900FBE0F901F901895F894FFCF0F
:10022E00FF00FD04FB04EF04DF04DF08EF08FB080A
:10023E00FD08FD01FB01EF01DF01DF02EF02FB0212
:02024E00FD02AF
:00000001FF
