:1000000019C033C032C065C030C02FC091C02DC0F0
:100010002CC02BC02AC029C028C027C026C025C09C
:1000200024C023C022C021C020C01FC01EC01DC0CC
:100030001CC01BC011241FBECFEFCDBFDFE3DEBF4E
:100040001FE3A0E0BFE3EEE8F1E002C005900D92EF
:10005000A034B107D9F72FE3A0E4BFE301C01D929C
:10006000A434B207E1F714D090C0CACF9C0110921B
:100070004701E0E4F1E091819111FDCFE0E4F1E08E
:100080002287338782818160828389EA8083089511
:1000900084E690E0EBDFE0E0F4E08FEB8183A0E228
:1000A000B4E08FEF11968C9311978BE0868B81E0F3
:1000B00090E08093423F9093433F88EC90E08093A0
:1000C000403F9093413F148281E014968C93789442
:1000D000FFCF1F920F920FB60F9211242F938F9381
:1000E0009F93EF93FF938091423F9091433F0196FE
:1000F0008093423F9093433F2AE684E091E0215071
:1001000080409040E1F700C0E0E0F4E0808586FFA9
:10011000FDCFE0E0F4E0818580648187FF91EF917D
:100120009F918F912F910F900FBE0F901F90189558
:100130001F920F920FB60F9211248F93EF93FF939C
:1001400081E080934301E091423FF091433FEE0F05
:10015000FF1FEE0FFF1FE050F14C808180930404DD
:10016000E091423FF091433FEE0FFF1FEE0FFF1F64
:10017000E050F14C828180932704FF91EF918F91A1
:0E0180000F900FBE0F901F901895F894FFCFB0
:10018E00FD000400FB000400EE000400DE0004008D
:10019E00DE000800EE000800FB000800FD0008006D
:1001AE00FD000100FB000100EE000100DE00010079
:1001BE00DE000200EE000200FB000200FD00020065
:00000001FF
