:1000000019C033C032C008C230C02FC02EC01BC2BE
:100010002BC22BC02AC029C028C068C226C025C058
:1000200024C023C022C021C020C01FC01EC01DC0CC
:100030001CC01BC011241FBECFEFCDBFDFE3DEBF4E
:100040001EE3A0E0BEE3EDEAFCE002C005900D92E5
:10005000AE30B107D9F72EE3AEE0BEE301C01D928A
:10006000A332B207E1F794D073C5CACFE0E0F8E05D
:10007000948195FFFDCF8093020880E090E0089581
:1000800081E080930102E0E0F4E08081826080837F
:10009000E0E0F8E08DE695E08087918786818064D6
:1000A000868380E09EE380931F3E9093203E0895D8
:1000B000E0E4F1E081E087838083828B81E7808BBD
:1000C0000895E0E0FAE081E08287118281858E7FE9
:1000D000818781E090E086A397A38FE080830895D5
:1000E000E0E4FAE08FEF9FEF8487958781E08083DB
:1000F00085830895FC01EE0FFF1F8E0F9F1FFC01EB
:10010000E65BF3478081809304048181809324041B
:10011000828180934404089580EC809304048FE3EB
:1001200080932404109244040895CF93DF93809128
:10013000123E9091133E0697E8F4C4E5DBE8209167
:10014000123E3091133E8091193E90911A3E3F939A
:100150002F939F938F93DF93CF9304D28091123E7E
:100160009091133E0F900F900F900F900F900F9063
:10017000069728F31092193E10921A3E1092123EE2
:100180001092133E8CEA9BE800D2DF91CF91089544
:100190008AE090E08DDF95DFA3DF72DFE0E0F4E03E
:1001A00083EE81838FEF80932104809341048BE061
:1001B000828B1092193E10921A3E1092123E1092AB
:1001C000133E10921B3E10921C3E8AE090E08093FA
:1001D000103E9093113E1092143E1092153E1092D4
:1001E000183E7894E0E5F0E0808182608083808131
:1001F0008160808385EB9BE8C8D197DFC6ECDBE8A4
:100200006894AA24A5F8B12C01E010E00F2EFFE0BD
:10021000EF2EFCE8FF2EF02D0F2EF8E2CF2EFCE89B
:10022000DF2EF02D8091193E90911A3E069708F42A
:100230007FC080911B3E90911C3E8091103E90911A
:10024000113E9F938F93DF93CF938CD18091103E7B
:100250009091113E01968093103E9093113E109222
:100260001B3E10921C3E61DF8091103E9091113E2A
:100270000F900F900F900F9081970CF459C0A0929F
:10028000163EB092173E8A2D9B2D8093103E909380
:10029000113E9AE624E081E0915020408040E1F751
:1002A00000C08091163E9091173E01978093163EB4
:1002B0009093173E1816190644F3A8C08093103E79
:1002C0009093113E9AE624E081E0915020408040D6
:1002D000E1F700C08091163E9091173E0196809301
:1002E000163E9093173E8132910544F3A092163E3C
:1002F000B092173E8A2D9B2D8093103E9093113E15
:100300009AE624E081E0915020408040E1F700C06F
:100310008091163E9091173E01978093163E9093E0
:10032000173E1816190644F30093103E1093113E21
:100330008091123E9091133E893C9105B8F08BED6F
:100340009BE823D1E9DE88958091183E81110EC08B
:100350001092193E10921A3E1092123E1092133EC5
:100360008DE890E20197F1F70000DFDE8091183E02
:10037000813009F057CFD0DE8DE890E20197F1F798
:1003800000001092183E80911B3E90911C3E0196F9
:1003900080931B3E90931C3E80911B3E90911C3E8F
:1003A0008936914038F08DEE9BE8EFD00093103EF7
:1003B0001093113E80911B3E90911C3E9F938F9312
:1003C000FF92EF92CFD0A8DE40911B3E50911C3E91
:1003D0009A01ADECBCECBAD0969587959695879529
:1003E0009C01220F331F220F331F820F931F0F9088
:1003F0000F900F900F904817590731F0DF92CF926E
:10040000B1D00F900F900ECF88950CCF0093163E71
:100410001093173EC80152CF1F920F920FB60F9242
:1004200011248F93EF93FF931092183EE0E0F4E0D5
:10043000818584608187FF91EF918F910F900FBE2E
:100440000F901F9018951F920F920FB60F921124C4
:100450008F9381E08093183E809353018F910F908A
:100460000FBE0F901F9018951F920F920FB60F920C
:1004700011242F933F934F935F936F937F938F93A9
:100480009F93AF93BF93EF93FF938091143E90910E
:10049000153E01968093143E9093153E2091103E98
:1004A0003091113E2817390714F024DE01C034DEE4
:1004B0008091143E9091153E819724F01092143E45
:1004C0001092153E81E080930B0AFF91EF91BF914E
:1004D000AF919F918F917F916F915F914F913F91DC
:1004E0002F910F900FBE0F901F9018951F920F9293
:1004F0000FB60F9211248F939F938091080482FD71
:100500000EC08091193E90911A3E01968093193E3B
:1005100090931A3E1092123E1092133E0DC010920C
:10052000193E10921A3E8091123E9091133E019610
:100530008093123E9093133E81E08093460A9F91F0
:100540008F910F900FBE0F901F901895A29FB00132
:10055000B39FC001A39F01D0B29F700D811D1124D4
:10056000911D0895A0E0B0E0E7EBF2E0D0C2AE014B
:100570004B5F5F4FFA0161917191AF0180911F3E16
:100580009091203E32D0E2E0DBC20F931F93CF93D5
:10059000DF93E0911F3EF091203E238121FF1BC09D
:1005A0008C01D0E0C0E0F80181918F0160911F3E85
:1005B0007091203EDB011896ED91FC9119978823EC
:1005C00031F00995892B79F3DFEFCFEFECCF8AE09B
:1005D0000995892B19F08FEF9FEF02C08D2F9C2F6B
:1005E000DF91CF911F910F910895ABE0B0E0EAEF5A
:1005F000F2E07DC26C017B018A01FC011682178248
:10060000838181FFBFC1CE0101963C01F601938138
:10061000F70193FD859193FF81917F01882309F470
:10062000ADC1853239F493FD859193FF81917F01AE
:10063000853221F4B60190E0C0D1E8CF912C212C75
:10064000312CFFE1F315D8F08B3279F038F4803299
:1006500079F08332A1F4232D20611DC08D3261F029
:10066000803369F4232D216016C0832D8260382EDB
:10067000E32DE4603E2E2AC0F32DF8601DC037FC48
:100680002DC020ED280F2A3040F08E32B9F436FC10
:1006900075C1232D2064322E19C036FE06C08AE0B3
:1006A000989E200D1124922E11C0EAE02E9E200D5E
:1006B0001124222EF32DF0623F2E08C08C3621F437
:1006C000832D8068382E02C0883641F4F70193FDEF
:1006D000859193FF81917F018111B3CF982F9F7DE9
:1006E0009554933028F40C5F1F4F9FE399830DC0FE
:1006F000833631F0833771F0833509F055C020C05F
:10070000F801808189830E5F1F4F88248394912C88
:10071000530112C02801F2E04F0E511CF801A080D5
:10072000B18036FE03C0692D70E002C06FEF7FEF2D
:10073000C50138D14C018201F32DFF773F2E15C042
:10074000280122E0420E511CF801A080B18036FE43
:1007500003C0692D70E002C06FEF7FEFC50117D1B4
:100760004C01F32DF0683F2E820133FC19C0822D1D
:1007700090E088169906A0F4B60180E290E01DD1C1
:100780002A94F5CFF50137FC859137FE81915F0101
:10079000B60190E012D121102A9421E0821A91082A
:1007A0008114910479F7E1C0843611F0893639F566
:1007B000F80137FE07C060817181828193810C5FEF
:1007C0001F4F08C060817181072E000C880B990BA8
:1007D0000E5F1F4FF32DFF763F2E97FF09C09095B8
:1007E0008095709561957F4F8F4F9F4FF0683F2E9A
:1007F0002AE030E0A3011DD1882E861844C0853739
:1008000031F4232D2F7EB22E2AE030E025C0932D27
:10081000997FB92E8F36C1F018F4883579F0AEC0C3
:10082000803719F0883721F0A9C0E92FE061BE2E8A
:10083000B4FE0DC0FB2DF460BF2E09C034FE0AC00B
:10084000292F2660B22E06C028E030E005C020E146
:1008500030E002C020E132E0F801B7FE07C060815D
:100860007181828193810C5F1F4F06C0608171810D
:1008700080E090E00E5F1F4FA301DBD0882E86182A
:10088000FB2DFF773F2E36FE0DC0232D2E7FA22E8F
:10089000891458F434FE0BC032FC09C0832D8E7EBF
:1008A000A82E05C0B82CA32C03C0B82C01C0B92CAD
:1008B000A4FE0FC0FE01E80DF11D8081803321F4FC
:1008C0009A2D997EA92E09C0A2FE06C0B394B394B6
:1008D00004C08A2D867809F0B394A3FC10C0A0FE52
:1008E00006C0B21480F4280C922C9B180DC0B214D0
:1008F00058F4B60180E290E060D0B394F8CFB2141F
:1009000018F42B1802C0982C212CA4FE0FC0B6019D
:1009100080E390E052D0A2FE16C0A1FC03C088E79D
:1009200090E002C088E590E0B6010CC08A2D867880
:1009300051F0A1FE02C08BE201C080E2A7FC8DE273
:10094000B60190E03AD0891430F4B60180E390E02B
:1009500034D09A94F8CF8A94F301E80DF11D808188
:10096000B60190E02AD08110F6CF222009F44ECEB5
:10097000B60180E290E021D02A94F7CFF60186817B
:10098000978102C08FEF9FEF2B96E2E1C9C0FC0177
:100990000590615070400110D8F7809590958E0FAA
:1009A0009F1F0895FC016150704001900110D8F71D
:1009B000809590958E0F9F1F08950F931F93CF934F
:1009C000DF93FB01238121FD03C08FEF9FEF2CC03C
:1009D00022FF16C046815781248135814217530773
:1009E00044F4A081B1819D012F5F3F4F208331836B
:1009F0008C93268137812F5F3F4F2683378314C026
:100A00008B01EC01FB010084F185E02D0995892B18
:100A1000E1F6D80116968D919C911797019616963E
:100A20008D939C931797CE01DF91CF911F910F91DA
:100A30000895FA01AA27283051F1203181F1E89474
:100A40006F936E7F6E5F7F4F8F4F9F4FAF4FB1E0C1
:100A50003ED0B4E03CD0670F781F891F9A1FA11DBC
:100A6000680F791F8A1F911DA11D6A0F711D811DBD
:100A7000911DA11D20D009F468943F912AE0269F82
:100A800011243019305D3193DEF6CF010895462FE1
:100A90004770405D4193B3E00FD0C9F7F6CF462FC2
:100AA0004F70405D4A3318F0495D31FD405241932B
:100AB00002D0A9F7EACFB4E0A695979587957795E8
:100AC0006795BA95C9F700976105710508959B016F
:100AD000AC010A2E06945795479537952795BA95F8
:100AE000C9F7620F731F841F951FA01D08952F92D1
:100AF0003F924F925F926F927F928F929F92AF92AE
:100B0000BF92CF92DF92EF92FF920F931F93CF93FA
:100B1000DF93CDB7DEB7CA1BDB0BCDBFDEBF0994B9
:100B20002A88398848885F846E847D848C849B847D
:100B3000AA84B984C884DF80EE80FD800C811B818B
:100B4000AA81B981CE0FD11DCDBFDEBFED010895C1
:040B5000F894FFCF47
:100B540057616974696E6720666F722072656C658F
:100B6400617365207769746820636F6E736563755C
:100B7400746976655F636F756E74735F70726573A5
:100B84007365643A25642C20636F6E7365637574B2
:100B94006976655F636F756E74735F72656C6561AA
:100BA4007365643A25640A0052656C656173656413
:100BB40000626F6F74696E672066696E6973686539
:100BC4006400496E6372656173696E67207820748E
:100BD4006F202564200A00676F696E6720746F2098
:100BE400736C6565702E2E2E005265736574696E84
:100BF4006720782064756520746F206C6F6E6720A1
:100C0400696E616374697669747900616761696E9C
:100C1400206A7573742050495420776974682025BC
:100C240064200A006576657279206E7468205049E4
:100C3400542073686F756C642062652076697369EB
:100C4400626C650A2000C03F00C0FE01C0FD01C007
:100C5400FB01C0F701C0EF01C0DF0180FF0140FFCD
:100C640001C0EF02C0DF0280FF0240FF02C0FE02AB
:100C7400C0FD02C0FB02C0F702C0EF04C0DF048065
:100C8400FF0440FF04C0FE04C0FD04C0FB04C0F721
:100C940004C0EF08C0DF0880FF0840FF08C0FE085A
:090CA400C0FD08C0FB08C0F70800
:0E0CAD00000000020000000036000000000001
:00000001FF
